{
  "_format": "hh-sol-artifact-1",
  "contractName": "Cert",
  "sourceName": "contracts/Certi.sol",
  "abi": [
    {
      "inputs": [
        {
          "internalType": "address",
          "name": "initialOwner",
          "type": "address"
        }
      ],
      "stateMutability": "nonpayable",
      "type": "constructor"
    },
    {
      "inputs": [
        {
          "internalType": "address",
          "name": "owner",
          "type": "address"
        }
      ],
      "name": "OwnableInvalidOwner",
      "type": "error"
    },
    {
      "inputs": [
        {
          "internalType": "address",
          "name": "account",
          "type": "address"
        }
      ],
      "name": "OwnableUnauthorizedAccount",
      "type": "error"
    },
    {
      "anonymous": false,
      "inputs": [
        {
          "indexed": true,
          "internalType": "address",
          "name": "previousOwner",
          "type": "address"
        },
        {
          "indexed": true,
          "internalType": "address",
          "name": "newOwner",
          "type": "address"
        }
      ],
      "name": "OwnershipTransferred",
      "type": "event"
    },
    {
      "anonymous": false,
      "inputs": [
        {
          "indexed": false,
          "internalType": "uint256",
          "name": "cid",
          "type": "uint256"
        },
        {
          "indexed": false,
          "internalType": "string",
          "name": "cidate",
          "type": "string"
        }
      ],
      "name": "issued",
      "type": "event"
    },
    {
      "inputs": [
        {
          "internalType": "uint256",
          "name": "",
          "type": "uint256"
        }
      ],
      "name": "Certificates",
      "outputs": [
        {
          "internalType": "string",
          "name": "name",
          "type": "string"
        },
        {
          "internalType": "string",
          "name": "course",
          "type": "string"
        },
        {
          "internalType": "string",
          "name": "grade",
          "type": "string"
        },
        {
          "internalType": "string",
          "name": "date",
          "type": "string"
        }
      ],
      "stateMutability": "view",
      "type": "function"
    },
    {
      "inputs": [
        {
          "internalType": "uint256",
          "name": "_id",
          "type": "uint256"
        },
        {
          "internalType": "string",
          "name": "_name",
          "type": "string"
        },
        {
          "internalType": "string",
          "name": "_course",
          "type": "string"
        },
        {
          "internalType": "string",
          "name": "_grade",
          "type": "string"
        },
        {
          "internalType": "string",
          "name": "_date",
          "type": "string"
        }
      ],
      "name": "issue",
      "outputs": [],
      "stateMutability": "nonpayable",
      "type": "function"
    },
    {
      "inputs": [],
      "name": "owner",
      "outputs": [
        {
          "internalType": "address",
          "name": "",
          "type": "address"
        }
      ],
      "stateMutability": "view",
      "type": "function"
    },
    {
      "inputs": [],
      "name": "renounceOwnership",
      "outputs": [],
      "stateMutability": "nonpayable",
      "type": "function"
    },
    {
      "inputs": [
        {
          "internalType": "address",
          "name": "newOwner",
          "type": "address"
        }
      ],
      "name": "transferOwnership",
      "outputs": [],
      "stateMutability": "nonpayable",
      "type": "function"
    }
  ],
  "bytecode": "0x608060405234801561001057600080fd5b506040516109b93803806109b983398101604081905261002f916100be565b806001600160a01b03811661005e57604051631e4fbdf760e01b81526000600482015260240160405180910390fd5b6100678161006e565b50506100ee565b600080546001600160a01b038381166001600160a01b0319831681178455604051919092169283917f8be0079c531659141344cd1fd0a4f28419497f9722a3daafe3b4186f6b6457e09190a35050565b6000602082840312156100d057600080fd5b81516001600160a01b03811681146100e757600080fd5b9392505050565b6108bc806100fd6000396000f3fe608060405234801561001057600080fd5b50600436106100575760003560e01c8063715018a61461005c5780638da5cb5b146100665780639622c83614610084578063d1e7be26146100a7578063f2fde38b146100ba575b600080fd5b6100646100cd565b005b61006e6100e1565b60405161007b91906104ca565b60405180910390f35b6100976100923660046104de565b6100f0565b60405161007b949392919061053d565b6100646100b5366004610637565b610338565b6100646100c83660046106ed565b610401565b6100d5610448565b6100df600061047a565b565b6000546001600160a01b031690565b60016020526000908152604090208054819061010b9061071d565b80601f01602080910402602001604051908101604052809291908181526020018280546101379061071d565b80156101845780601f1061015957610100808354040283529160200191610184565b820191906000526020600020905b81548152906001019060200180831161016757829003601f168201915b5050505050908060010180546101999061071d565b80601f01602080910402602001604051908101604052809291908181526020018280546101c59061071d565b80156102125780601f106101e757610100808354040283529160200191610212565b820191906000526020600020905b8154815290600101906020018083116101f557829003601f168201915b5050505050908060020180546102279061071d565b80601f01602080910402602001604051908101604052809291908181526020018280546102539061071d565b80156102a05780601f10610275576101008083540402835291602001916102a0565b820191906000526020600020905b81548152906001019060200180831161028357829003601f168201915b5050505050908060030180546102b59061071d565b80601f01602080910402602001604051908101604052809291908181526020018280546102e19061071d565b801561032e5780601f106103035761010080835404028352916020019161032e565b820191906000526020600020905b81548152906001019060200180831161031157829003601f168201915b5050505050905084565b610340610448565b6040805160808101825285815260208082018690528183018590526060820184905260008881526001909152919091208151819061037e90826107a6565b506020820151600182019061039390826107a6565b50604082015160028201906103a890826107a6565b50606082015160038201906103bd90826107a6565b509050507f63c63848983d6b8da62305c82b2acd19735be5904a39f9a88b81e74e05c9cdbd85826040516103f2929190610865565b60405180910390a15050505050565b610409610448565b6001600160a01b03811661043c576000604051631e4fbdf760e01b815260040161043391906104ca565b60405180910390fd5b6104458161047a565b50565b336104516100e1565b6001600160a01b0316146100df573360405163118cdaa760e01b815260040161043391906104ca565b600080546001600160a01b038381166001600160a01b0319831681178455604051919092169283917f8be0079c531659141344cd1fd0a4f28419497f9722a3daafe3b4186f6b6457e09190a35050565b6001600160a01b0391909116815260200190565b6000602082840312156104f057600080fd5b5035919050565b6000815180845260005b8181101561051d57602081850181015186830182015201610501565b506000602082860101526020601f19601f83011685010191505092915050565b60808152600061055060808301876104f7565b828103602084015261056281876104f7565b9050828103604084015261057681866104f7565b9050828103606084015261058a81856104f7565b979650505050505050565b634e487b7160e01b600052604160045260246000fd5b600082601f8301126105bc57600080fd5b81356001600160401b03808211156105d6576105d6610595565b604051601f8301601f19908116603f011681019082821181831017156105fe576105fe610595565b8160405283815286602085880101111561061757600080fd5b836020870160208301376000602085830101528094505050505092915050565b600080600080600060a0868803121561064f57600080fd5b8535945060208601356001600160401b038082111561066d57600080fd5b61067989838a016105ab565b9550604088013591508082111561068f57600080fd5b61069b89838a016105ab565b945060608801359150808211156106b157600080fd5b6106bd89838a016105ab565b935060808801359150808211156106d357600080fd5b506106e0888289016105ab565b9150509295509295909350565b6000602082840312156106ff57600080fd5b81356001600160a01b038116811461071657600080fd5b9392505050565b600181811c9082168061073157607f821691505b60208210810361075157634e487b7160e01b600052602260045260246000fd5b50919050565b601f8211156107a157600081815260208120601f850160051c8101602086101561077e5750805b601f850160051c820191505b8181101561079d5782815560010161078a565b5050505b505050565b81516001600160401b038111156107bf576107bf610595565b6107d3816107cd845461071d565b84610757565b602080601f83116001811461080857600084156107f05750858301515b600019600386901b1c1916600185901b17855561079d565b600085815260208120601f198616915b8281101561083757888601518255948401946001909101908401610818565b50858210156108555787850151600019600388901b60f8161c191681555b5050505050600190811b01905550565b82815260406020820152600061087e60408301846104f7565b94935050505056fea26469706673582212200af84f4ceffd5f24d478e378b0ace187fae44818714e14fd3f1527b4f1f1e57064736f6c63430008140033",
  "linkReferences": {},
  "deployedLinkReferences": {}
}